{
  "_format": "hh-sol-artifact-1",
  "contractName": "Splitwise",
  "sourceName": "contracts/mycontract.sol",
  "abi": [
    {
      "inputs": [
        {
          "internalType": "address",
          "name": "creditor",
          "type": "address"
        },
        {
          "internalType": "uint32",
          "name": "amount",
          "type": "uint32"
        },
        {
          "internalType": "address[]",
          "name": "path",
          "type": "address[]"
        }
      ],
      "name": "add_IOU",
      "outputs": [],
      "stateMutability": "nonpayable",
      "type": "function"
    },
    {
      "inputs": [
        {
          "internalType": "address",
          "name": "",
          "type": "address"
        },
        {
          "internalType": "address",
          "name": "",
          "type": "address"
        }
      ],
      "name": "debts",
      "outputs": [
        {
          "internalType": "uint32",
          "name": "",
          "type": "uint32"
        }
      ],
      "stateMutability": "view",
      "type": "function"
    },
    {
      "inputs": [
        {
          "internalType": "address",
          "name": "debtor",
          "type": "address"
        },
        {
          "internalType": "address",
          "name": "creditor",
          "type": "address"
        }
      ],
      "name": "lookup",
      "outputs": [
        {
          "internalType": "uint32",
          "name": "ret",
          "type": "uint32"
        }
      ],
      "stateMutability": "view",
      "type": "function"
    }
  ],
  "bytecode": "0x608060405234801561001057600080fd5b50610b87806100206000396000f3fe608060405234801561001057600080fd5b50600436106100415760003560e01c80634ac1c33d14610046578063713584a614610076578063dd033b8d146100a6575b600080fd5b610060600480360381019061005b9190610672565b6100c2565b60405161006d91906106d1565b60405180910390f35b610090600480360381019061008b9190610672565b6100f4565b60405161009d91906106d1565b60405180910390f35b6100c060048036038101906100bb9190610871565b61018a565b005b60006020528160005260406000206020528060005260406000206000915091509054906101000a900463ffffffff1681565b60008060008473ffffffffffffffffffffffffffffffffffffffff1673ffffffffffffffffffffffffffffffffffffffff16815260200190815260200160002060008373ffffffffffffffffffffffffffffffffffffffff1673ffffffffffffffffffffffffffffffffffffffff16815260200190815260200160002060009054906101000a900463ffffffff16905092915050565b60008263ffffffff16116101d3576040517f08c379a00000000000000000000000000000000000000000000000000000000081526004016101ca9061093d565b60405180910390fd5b8273ffffffffffffffffffffffffffffffffffffffff163373ffffffffffffffffffffffffffffffffffffffff1603610241576040517f08c379a0000000000000000000000000000000000000000000000000000000008152600401610238906109a9565b60405180910390fd5b816000803373ffffffffffffffffffffffffffffffffffffffff1673ffffffffffffffffffffffffffffffffffffffff16815260200190815260200160002060008573ffffffffffffffffffffffffffffffffffffffff1673ffffffffffffffffffffffffffffffffffffffff16815260200190815260200160002060008282829054906101000a900463ffffffff166102db91906109f8565b92506101000a81548163ffffffff021916908363ffffffff1602179055506000815111156105fb57600082905060005b600183516103199190610a3a565b81101561041c57600080600085848151811061033857610337610a6e565b5b602002602001015173ffffffffffffffffffffffffffffffffffffffff1673ffffffffffffffffffffffffffffffffffffffff16815260200190815260200160002060008560018561038a9190610a9d565b8151811061039b5761039a610a6e565b5b602002602001015173ffffffffffffffffffffffffffffffffffffffff1673ffffffffffffffffffffffffffffffffffffffff16815260200190815260200160002060009054906101000a900463ffffffff1690508263ffffffff168163ffffffff161015610408578092505b50808061041490610ad1565b91505061030b565b5060005b6001835161042e9190610a3a565b811015610540578160008085848151811061044c5761044b610a6e565b5b602002602001015173ffffffffffffffffffffffffffffffffffffffff1673ffffffffffffffffffffffffffffffffffffffff16815260200190815260200160002060008560018561049e9190610a9d565b815181106104af576104ae610a6e565b5b602002602001015173ffffffffffffffffffffffffffffffffffffffff1673ffffffffffffffffffffffffffffffffffffffff16815260200190815260200160002060008282829054906101000a900463ffffffff1661050f9190610b19565b92506101000a81548163ffffffff021916908363ffffffff160217905550808061053890610ad1565b915050610420565b50806000803373ffffffffffffffffffffffffffffffffffffffff1673ffffffffffffffffffffffffffffffffffffffff16815260200190815260200160002060008673ffffffffffffffffffffffffffffffffffffffff1673ffffffffffffffffffffffffffffffffffffffff16815260200190815260200160002060008282829054906101000a900463ffffffff166105db9190610b19565b92506101000a81548163ffffffff021916908363ffffffff160217905550505b505050565b6000604051905090565b600080fd5b600080fd5b600073ffffffffffffffffffffffffffffffffffffffff82169050919050565b600061063f82610614565b9050919050565b61064f81610634565b811461065a57600080fd5b50565b60008135905061066c81610646565b92915050565b600080604083850312156106895761068861060a565b5b60006106978582860161065d565b92505060206106a88582860161065d565b9150509250929050565b600063ffffffff82169050919050565b6106cb816106b2565b82525050565b60006020820190506106e660008301846106c2565b92915050565b6106f5816106b2565b811461070057600080fd5b50565b600081359050610712816106ec565b92915050565b600080fd5b6000601f19601f8301169050919050565b7f4e487b7100000000000000000000000000000000000000000000000000000000600052604160045260246000fd5b6107668261071d565b810181811067ffffffffffffffff821117156107855761078461072e565b5b80604052505050565b6000610798610600565b90506107a4828261075d565b919050565b600067ffffffffffffffff8211156107c4576107c361072e565b5b602082029050602081019050919050565b600080fd5b60006107ed6107e8846107a9565b61078e565b905080838252602082019050602084028301858111156108105761080f6107d5565b5b835b818110156108395780610825888261065d565b845260208401935050602081019050610812565b5050509392505050565b600082601f83011261085857610857610718565b5b81356108688482602086016107da565b91505092915050565b60008060006060848603121561088a5761088961060a565b5b60006108988682870161065d565b93505060206108a986828701610703565b925050604084013567ffffffffffffffff8111156108ca576108c961060f565b5b6108d686828701610843565b9150509250925092565b600082825260208201905092915050565b7f416d6f756e74206d75737420626520706f736974697665210000000000000000600082015250565b60006109276018836108e0565b9150610932826108f1565b602082019050919050565b600060208201905081810360008301526109568161091a565b9050919050565b7f43616e206e6f74206f776520796f757273656c66210000000000000000000000600082015250565b60006109936015836108e0565b915061099e8261095d565b602082019050919050565b600060208201905081810360008301526109c281610986565b9050919050565b7f4e487b7100000000000000000000000000000000000000000000000000000000600052601160045260246000fd5b6000610a03826106b2565b9150610a0e836106b2565b9250828201905063ffffffff811115610a2a57610a296109c9565b5b92915050565b6000819050919050565b6000610a4582610a30565b9150610a5083610a30565b9250828203905081811115610a6857610a676109c9565b5b92915050565b7f4e487b7100000000000000000000000000000000000000000000000000000000600052603260045260246000fd5b6000610aa882610a30565b9150610ab383610a30565b9250828201905080821115610acb57610aca6109c9565b5b92915050565b6000610adc82610a30565b91507fffffffffffffffffffffffffffffffffffffffffffffffffffffffffffffffff8203610b0e57610b0d6109c9565b5b600182019050919050565b6000610b24826106b2565b9150610b2f836106b2565b9250828203905063ffffffff811115610b4b57610b4a6109c9565b5b9291505056fea26469706673582212203a646e7763e4bd3654d3024b18aad8cd0d9f965d209171394bbb06714328997664736f6c63430008110033",
  "linkReferences": {},
  "deployedLinkReferences": {}
}